:0400000009EF00F014
:0A0008008B7415C0D6FFF2941100AE
:100012000F0EC16E0F0E936E946AE00EF26EF19E99
:100022008A8E8A8C8A8A8A88400ED56E8A9C81B092
:1000320009D0810E156E810ED66ED58E81B001D09B
:10004200FDD7D59E81B209D0870E156E870ED66E6A
:10005200D58E81B201D0FDD7D59E8A8C8A9A81B085
:1000620009D04D0E156E4D0ED66ED58E81B001D0D3
:10007200FDD7D59E81B209D0610E156E610ED66E86
:10008200D58E81B201D0FDD7D59E81B409D0720E32
:10009200156E720ED66ED58E81B401D0FDD7D59E67
:1000A2008A8A8A9881B009D00F0E156E0F0ED66E0D
:1000B200D58E81B001D0FDD7D59E81B209D02B0E4D
:1000C200156E2B0ED66ED58E81B201D0FDD7D59E80
:1000D20081B409D0420E156E420ED66ED58E81B411
:0C00E20001D0FDD7D59E8A88A1D7FFD79A
:020000040030CA
:0E000000000C1F1EFF8381FF0FC00FE00F409A
:00000001FF
