:100000005AEF00F00000000016EF00F000000000C2
:0C00100000000000000000001BEF00F0EA
:10001C000900F5CFE6FF0006FBE10106F9E112004D
:0A002C008B7418C0D6FFF294110087
:10003600156ED8CF16F0E0CF17F081B010D081B88A
:1000460003D00F0E186ED58E81BA03D04D0E186EE2
:10005600D58E81BC03D0810E186ED58E20D081B28C
:1000660010D081B803D02B0E186ED58E81BA03D06E
:10007600610E186ED58E81BC03D0870E186ED58E94
:100086000ED081B40BD081B803D0420E186ED58E37
:1000960081BA03D0720E186ED58E01D0D59EF2901D
:0E00A6001750E06E1650D86E153A153810003F
:1000B400FF0E186E0F0EC16EF00E936E946AD08E02
:1000C400E80EF26EF19EF184F1908A868A848A8227
:1000D4008A80500ED56E8A74020E0B6E040E0C6E5E
:1000E400BA0E0D6E0D2EFED70C2EFCD70B2EFAD7A2
:1000F40000008A748A72020E0B6E040E0C6EBA0E25
:100104000D6E0D2EFED70C2EFCD70B2EFAD7000049
:100114008A728A70020E0B6E040E0C6EBA0E0D6E8D
:100124000D2EFED70C2EFCD70B2EFAD700008A70AA
:04013400D2D7FFD748
:020000040030CA
:0E000000000C1F1EFF8381FF0FC00FE00F409A
:00000001FF
