:1000000026EF00F0000000000EEF00F000000000FE
:0C001000000000000000000013EF00F0F2
:0A001C008B7418C0D6FFF294110097
:10002600156ED8CF16F0E0CF17F08AB605D081BE90
:1000360003D00F0E186ED58E1750E06E1650D86E80
:06004600153A1538100008
:10004C000F0EC16EF00E936E946AE00EF26EF19E7E
:10005C00F184F1908A868A848A828A80400ED56ED9
:10006C008A768A768A748A748A728A728A708A709C
:10007C008A9C81B009D0810E186E810ED66ED58EF9
:10008C0081B001D0FDD7D59E81B209D0870E186EF4
:10009C00870ED66ED58E81B201D0FDD7D59E8A8CB7
:1000AC008A9A81B009D04D0E186E4D0ED66ED58E33
:1000BC0081B001D0FDD7D59E81B209D0610E186EEA
:1000CC00610ED66ED58E81B201D0FDD7D59E81B48E
:1000DC0009D0720E186E720ED66ED58E81B401D008
:1000EC00FDD7D59E8A8A8A9881B009D00F0E186EDA
:1000FC000F0ED66ED58E81B001D0FDD7D59E81B2B4
:10010C0009D02B0E186E2B0ED66ED58E81B201D067
:10011C00FDD7D59E81B409D0420E186E420ED66E14
:10012C00D58E81B401D0FDD7D59E8A8899D7FFD7BB
:020000040030CA
:0E000000000C1F1EFF8381FF0FC00FE00F409A
:00000001FF
