:040000000BEF00F012
:0E0008008B7415C0D7FF16C0D6FFF2941100FE
:100016000F0EC16E0F0E936E946AE00EF26EF19E95
:100026008A8E8A8C8A8A8A88080ED56E8A9C81B0C6
:100036000DD0FF0E156EFF0ED76E030E166E030E55
:10004600D66ED58E81B001D0FDD7D59E81B20DD0AA
:10005600FF0E156EFF0ED76E150E166E150ED66EAA
:10006600D58E81B201D0FDD7D59E8A8C8A9A81B071
:100076000DD0FE0E156EFE0ED76E9A0E166E9A0EE9
:10008600D66ED58E81B001D0FDD7D59E81B20DD06A
:10009600FE0E156EFE0ED76EC10E166EC10ED66E14
:1000A600D58E81B201D0FDD7D59E81B40DD0FE0E7E
:1000B600156EFE0ED76EE40E166EE40ED66ED58E57
:1000C60081B401D0FDD7D59E8A8A8A9881B00DD099
:1000D600FE0E156EFE0ED76E1E0E166E1E0ED66E1A
:1000E600D58E81B001D0FDD7D59E81B20DD0FE0E42
:1000F600156EFE0ED76E560E166E560ED66ED58E33
:1001060081B201D0FDD7D59E81B40DD0FE0E156EFD
:10011600FE0ED76E850E166E850ED66ED58E81B402
:0C01260001D0FDD7D59E8A8881D7FFD775
:020000040030CA
:0E000000000C1F1EFF8381FF0FC00FE00F409A
:00000001FF
